{"abi":[{"type":"constructor","inputs":[{"name":"name_","type":"string","internalType":"string"},{"name":"symbol_","type":"string","internalType":"string"}],"stateMutability":"nonpayable"},{"type":"function","name":"allowance","inputs":[{"name":"owner","type":"address","internalType":"address"},{"name":"spender","type":"address","internalType":"address"}],"outputs":[{"name":"","type":"uint256","internalType":"uint256"}],"stateMutability":"view"},{"type":"function","name":"approve","inputs":[{"name":"spender","type":"address","internalType":"address"},{"name":"value","type":"uint256","internalType":"uint256"}],"outputs":[{"name":"","type":"bool","internalType":"bool"}],"stateMutability":"nonpayable"},{"type":"function","name":"balanceOf","inputs":[{"name":"account","type":"address","internalType":"address"}],"outputs":[{"name":"","type":"uint256","internalType":"uint256"}],"stateMutability":"view"},{"type":"function","name":"decimals","inputs":[],"outputs":[{"name":"","type":"uint8","internalType":"uint8"}],"stateMutability":"view"},{"type":"function","name":"mint","inputs":[{"name":"amount_","type":"uint256","internalType":"uint256"}],"outputs":[],"stateMutability":"nonpayable"},{"type":"function","name":"name","inputs":[],"outputs":[{"name":"","type":"string","internalType":"string"}],"stateMutability":"view"},{"type":"function","name":"symbol","inputs":[],"outputs":[{"name":"","type":"string","internalType":"string"}],"stateMutability":"view"},{"type":"function","name":"totalSupply","inputs":[],"outputs":[{"name":"","type":"uint256","internalType":"uint256"}],"stateMutability":"view"},{"type":"function","name":"transfer","inputs":[{"name":"to","type":"address","internalType":"address"},{"name":"value","type":"uint256","internalType":"uint256"}],"outputs":[{"name":"","type":"bool","internalType":"bool"}],"stateMutability":"nonpayable"},{"type":"function","name":"transferFrom","inputs":[{"name":"from","type":"address","internalType":"address"},{"name":"to","type":"address","internalType":"address"},{"name":"value","type":"uint256","internalType":"uint256"}],"outputs":[{"name":"","type":"bool","internalType":"bool"}],"stateMutability":"nonpayable"},{"type":"event","name":"Approval","inputs":[{"name":"owner","type":"address","indexed":true,"internalType":"address"},{"name":"spender","type":"address","indexed":true,"internalType":"address"},{"name":"value","type":"uint256","indexed":false,"internalType":"uint256"}],"anonymous":false},{"type":"event","name":"Transfer","inputs":[{"name":"from","type":"address","indexed":true,"internalType":"address"},{"name":"to","type":"address","indexed":true,"internalType":"address"},{"name":"value","type":"uint256","indexed":false,"internalType":"uint256"}],"anonymous":false},{"type":"error","name":"ERC20InsufficientAllowance","inputs":[{"name":"spender","type":"address","internalType":"address"},{"name":"allowance","type":"uint256","internalType":"uint256"},{"name":"needed","type":"uint256","internalType":"uint256"}]},{"type":"error","name":"ERC20InsufficientBalance","inputs":[{"name":"sender","type":"address","internalType":"address"},{"name":"balance","type":"uint256","internalType":"uint256"},{"name":"needed","type":"uint256","internalType":"uint256"}]},{"type":"error","name":"ERC20InvalidApprover","inputs":[{"name":"approver","type":"address","internalType":"address"}]},{"type":"error","name":"ERC20InvalidReceiver","inputs":[{"name":"receiver","type":"address","internalType":"address"}]},{"type":"error","name":"ERC20InvalidSender","inputs":[{"name":"sender","type":"address","internalType":"address"}]},{"type":"error","name":"ERC20InvalidSpender","inputs":[{"name":"spender","type":"address","internalType":"address"}]}],"bytecode":{"object":"0x608060405234801562000010575f80fd5b5060405162001471380380620014718339818101604052810190620000369190620001eb565b81818160039081620000499190620004a5565b5080600490816200005b9190620004a5565b505050505062000589565b5f604051905090565b5f80fd5b5f80fd5b5f80fd5b5f80fd5b5f601f19601f8301169050919050565b7f4e487b71000000000000000000000000000000000000000000000000000000005f52604160045260245ffd5b620000c7826200007f565b810181811067ffffffffffffffff82111715620000e957620000e86200008f565b5b80604052505050565b5f620000fd62000066565b90506200010b8282620000bc565b919050565b5f67ffffffffffffffff8211156200012d576200012c6200008f565b5b62000138826200007f565b9050602081019050919050565b5f5b838110156200016457808201518184015260208101905062000147565b5f8484015250505050565b5f620001856200017f8462000110565b620000f2565b905082815260208101848484011115620001a457620001a36200007b565b5b620001b184828562000145565b509392505050565b5f82601f830112620001d057620001cf62000077565b5b8151620001e28482602086016200016f565b91505092915050565b5f80604083850312156200020457620002036200006f565b5b5f83015167ffffffffffffffff81111562000224576200022362000073565b5b6200023285828601620001b9565b925050602083015167ffffffffffffffff81111562000256576200025562000073565b5b6200026485828601620001b9565b9150509250929050565b5f81519050919050565b7f4e487b71000000000000000000000000000000000000000000000000000000005f52602260045260245ffd5b5f6002820490506001821680620002bd57607f821691505b602082108103620002d357620002d262000278565b5b50919050565b5f819050815f5260205f209050919050565b5f6020601f8301049050919050565b5f82821b905092915050565b5f60088302620003377fffffffffffffffffffffffffffffffffffffffffffffffffffffffffffffffff82620002fa565b620003438683620002fa565b95508019841693508086168417925050509392505050565b5f819050919050565b5f819050919050565b5f6200038d6200038762000381846200035b565b62000364565b6200035b565b9050919050565b5f819050919050565b620003a8836200036d565b620003c0620003b78262000394565b84845462000306565b825550505050565b5f90565b620003d6620003c8565b620003e38184846200039d565b505050565b5b818110156200040a57620003fe5f82620003cc565b600181019050620003e9565b5050565b601f82111562000459576200042381620002d9565b6200042e84620002eb565b810160208510156200043e578190505b620004566200044d85620002eb565b830182620003e8565b50505b505050565b5f82821c905092915050565b5f6200047b5f19846008026200045e565b1980831691505092915050565b5f6200049583836200046a565b9150826002028217905092915050565b620004b0826200026e565b67ffffffffffffffff811115620004cc57620004cb6200008f565b5b620004d88254620002a5565b620004e58282856200040e565b5f60209050601f8311600181146200051b575f841562000506578287015190505b62000512858262000488565b86555062000581565b601f1984166200052b86620002d9565b5f5b8281101562000554578489015182556001820191506020850194506020810190506200052d565b8683101562000574578489015162000570601f8916826200046a565b8355505b6001600288020188555050505b505050505050565b610eda80620005975f395ff3fe608060405234801561000f575f80fd5b506004361061009c575f3560e01c806370a082311161006457806370a082311461015a57806395d89b411461018a578063a0712d68146101a8578063a9059cbb146101c4578063dd62ed3e146101f45761009c565b806306fdde03146100a0578063095ea7b3146100be57806318160ddd146100ee57806323b872dd1461010c578063313ce5671461013c575b5f80fd5b6100a8610224565b6040516100b59190610b28565b60405180910390f35b6100d860048036038101906100d39190610bd9565b6102b4565b6040516100e59190610c31565b60405180910390f35b6100f66102d6565b6040516101039190610c59565b60405180910390f35b61012660048036038101906101219190610c72565b6102df565b6040516101339190610c31565b60405180910390f35b61014461030d565b6040516101519190610cdd565b60405180910390f35b610174600480360381019061016f9190610cf6565b610315565b6040516101819190610c59565b60405180910390f35b61019261035a565b60405161019f9190610b28565b60405180910390f35b6101c260048036038101906101bd9190610d21565b6103ea565b005b6101de60048036038101906101d99190610bd9565b6103f7565b6040516101eb9190610c31565b60405180910390f35b61020e60048036038101906102099190610d4c565b610419565b60405161021b9190610c59565b60405180910390f35b60606003805461023390610db7565b80601f016020809104026020016040519081016040528092919081815260200182805461025f90610db7565b80156102aa5780601f10610281576101008083540402835291602001916102aa565b820191905f5260205f20905b81548152906001019060200180831161028d57829003601f168201915b5050505050905090565b5f806102be61049b565b90506102cb8185856104a2565b600191505092915050565b5f600254905090565b5f806102e961049b565b90506102f68582856104b4565b610301858585610547565b60019150509392505050565b5f6012905090565b5f805f8373ffffffffffffffffffffffffffffffffffffffff1673ffffffffffffffffffffffffffffffffffffffff1681526020019081526020015f20549050919050565b60606004805461036990610db7565b80601f016020809104026020016040519081016040528092919081815260200182805461039590610db7565b80156103e05780601f106103b7576101008083540402835291602001916103e0565b820191905f5260205f20905b8154815290600101906020018083116103c357829003601f168201915b5050505050905090565b6103f43382610637565b50565b5f8061040161049b565b905061040e818585610547565b600191505092915050565b5f60015f8473ffffffffffffffffffffffffffffffffffffffff1673ffffffffffffffffffffffffffffffffffffffff1681526020019081526020015f205f8373ffffffffffffffffffffffffffffffffffffffff1673ffffffffffffffffffffffffffffffffffffffff1681526020019081526020015f2054905092915050565b5f33905090565b6104af83838360016106b6565b505050565b5f6104bf8484610419565b90507fffffffffffffffffffffffffffffffffffffffffffffffffffffffffffffffff8110156105415781811015610532578281836040517ffb8f41b200000000000000000000000000000000000000000000000000000000815260040161052993929190610df6565b60405180910390fd5b61054084848484035f6106b6565b5b50505050565b5f73ffffffffffffffffffffffffffffffffffffffff168373ffffffffffffffffffffffffffffffffffffffff16036105b7575f6040517f96c6fd1e0000000000000000000000000000000000000000000000000000000081526004016105ae9190610e2b565b60405180910390fd5b5f73ffffffffffffffffffffffffffffffffffffffff168273ffffffffffffffffffffffffffffffffffffffff1603610627575f6040517fec442f0500000000000000000000000000000000000000000000000000000000815260040161061e9190610e2b565b60405180910390fd5b610632838383610885565b505050565b5f73ffffffffffffffffffffffffffffffffffffffff168273ffffffffffffffffffffffffffffffffffffffff16036106a7575f6040517fec442f0500000000000000000000000000000000000000000000000000000000815260040161069e9190610e2b565b60405180910390fd5b6106b25f8383610885565b5050565b5f73ffffffffffffffffffffffffffffffffffffffff168473ffffffffffffffffffffffffffffffffffffffff1603610726575f6040517fe602df0500000000000000000000000000000000000000000000000000000000815260040161071d9190610e2b565b60405180910390fd5b5f73ffffffffffffffffffffffffffffffffffffffff168373ffffffffffffffffffffffffffffffffffffffff1603610796575f6040517f94280d6200000000000000000000000000000000000000000000000000000000815260040161078d9190610e2b565b60405180910390fd5b8160015f8673ffffffffffffffffffffffffffffffffffffffff1673ffffffffffffffffffffffffffffffffffffffff1681526020019081526020015f205f8573ffffffffffffffffffffffffffffffffffffffff1673ffffffffffffffffffffffffffffffffffffffff1681526020019081526020015f2081905550801561087f578273ffffffffffffffffffffffffffffffffffffffff168473ffffffffffffffffffffffffffffffffffffffff167f8c5be1e5ebec7d5bd14f71427d1e84f3dd0314c0f7b2291e5b200ac8c7c3b925846040516108769190610c59565b60405180910390a35b50505050565b5f73ffffffffffffffffffffffffffffffffffffffff168373ffffffffffffffffffffffffffffffffffffffff16036108d5578060025f8282546108c99190610e71565b925050819055506109a3565b5f805f8573ffffffffffffffffffffffffffffffffffffffff1673ffffffffffffffffffffffffffffffffffffffff1681526020019081526020015f205490508181101561095e578381836040517fe450d38c00000000000000000000000000000000000000000000000000000000815260040161095593929190610df6565b60405180910390fd5b8181035f808673ffffffffffffffffffffffffffffffffffffffff1673ffffffffffffffffffffffffffffffffffffffff1681526020019081526020015f2081905550505b5f73ffffffffffffffffffffffffffffffffffffffff168273ffffffffffffffffffffffffffffffffffffffff16036109ea578060025f8282540392505081905550610a34565b805f808473ffffffffffffffffffffffffffffffffffffffff1673ffffffffffffffffffffffffffffffffffffffff1681526020019081526020015f205f82825401925050819055505b8173ffffffffffffffffffffffffffffffffffffffff168373ffffffffffffffffffffffffffffffffffffffff167fddf252ad1be2c89b69c2b068fc378daa952ba7f163c4a11628f55a4df523b3ef83604051610a919190610c59565b60405180910390a3505050565b5f81519050919050565b5f82825260208201905092915050565b5f5b83811015610ad5578082015181840152602081019050610aba565b5f8484015250505050565b5f601f19601f8301169050919050565b5f610afa82610a9e565b610b048185610aa8565b9350610b14818560208601610ab8565b610b1d81610ae0565b840191505092915050565b5f6020820190508181035f830152610b408184610af0565b905092915050565b5f80fd5b5f73ffffffffffffffffffffffffffffffffffffffff82169050919050565b5f610b7582610b4c565b9050919050565b610b8581610b6b565b8114610b8f575f80fd5b50565b5f81359050610ba081610b7c565b92915050565b5f819050919050565b610bb881610ba6565b8114610bc2575f80fd5b50565b5f81359050610bd381610baf565b92915050565b5f8060408385031215610bef57610bee610b48565b5b5f610bfc85828601610b92565b9250506020610c0d85828601610bc5565b9150509250929050565b5f8115159050919050565b610c2b81610c17565b82525050565b5f602082019050610c445f830184610c22565b92915050565b610c5381610ba6565b82525050565b5f602082019050610c6c5f830184610c4a565b92915050565b5f805f60608486031215610c8957610c88610b48565b5b5f610c9686828701610b92565b9350506020610ca786828701610b92565b9250506040610cb886828701610bc5565b9150509250925092565b5f60ff82169050919050565b610cd781610cc2565b82525050565b5f602082019050610cf05f830184610cce565b92915050565b5f60208284031215610d0b57610d0a610b48565b5b5f610d1884828501610b92565b91505092915050565b5f60208284031215610d3657610d35610b48565b5b5f610d4384828501610bc5565b91505092915050565b5f8060408385031215610d6257610d61610b48565b5b5f610d6f85828601610b92565b9250506020610d8085828601610b92565b9150509250929050565b7f4e487b71000000000000000000000000000000000000000000000000000000005f52602260045260245ffd5b5f6002820490506001821680610dce57607f821691505b602082108103610de157610de0610d8a565b5b50919050565b610df081610b6b565b82525050565b5f606082019050610e095f830186610de7565b610e166020830185610c4a565b610e236040830184610c4a565b949350505050565b5f602082019050610e3e5f830184610de7565b92915050565b7f4e487b71000000000000000000000000000000000000000000000000000000005f52601160045260245ffd5b5f610e7b82610ba6565b9150610e8683610ba6565b9250828201905080821115610e9e57610e9d610e44565b5b9291505056fea2646970667358221220c2da211a96bdd6fd7de254763fec08030b6d8a817a2b1a862f9ffe0ee822dbda64736f6c63430008180033","linkReferences":{}},"methodIdentifiers":{"allowance(address,address)":"dd62ed3e","approve(address,uint256)":"095ea7b3","balanceOf(address)":"70a08231","decimals()":"313ce567","mint(uint256)":"a0712d68","name()":"06fdde03","symbol()":"95d89b41","totalSupply()":"18160ddd","transfer(address,uint256)":"a9059cbb","transferFrom(address,address,uint256)":"23b872dd"},"id":5}