{"abi":[{"type":"constructor","inputs":[{"name":"stakingToken_","type":"address","internalType":"address"},{"name":"owner_","type":"address","internalType":"address"}],"stateMutability":"nonpayable"},{"type":"function","name":"admin","inputs":[],"outputs":[{"name":"","type":"address","internalType":"address"}],"stateMutability":"view"},{"type":"function","name":"owner","inputs":[],"outputs":[{"name":"","type":"address","internalType":"address"}],"stateMutability":"view"},{"type":"function","name":"renounceOwnership","inputs":[],"outputs":[],"stateMutability":"nonpayable"},{"type":"function","name":"stakingToken","inputs":[],"outputs":[{"name":"","type":"address","internalType":"address"}],"stateMutability":"view"},{"type":"function","name":"transferOwnership","inputs":[{"name":"newOwner","type":"address","internalType":"address"}],"outputs":[],"stateMutability":"nonpayable"},{"type":"event","name":"OwnershipTransferred","inputs":[{"name":"previousOwner","type":"address","indexed":true,"internalType":"address"},{"name":"newOwner","type":"address","indexed":true,"internalType":"address"}],"anonymous":false},{"type":"error","name":"OwnableInvalidOwner","inputs":[{"name":"owner","type":"address","internalType":"address"}]},{"type":"error","name":"OwnableUnauthorizedAccount","inputs":[{"name":"account","type":"address","internalType":"address"}]}],"bytecode":{"object":"0x608060405234801561000f575f80fd5b506040516106a23803806106a283398181016040528101906100319190610218565b805f73ffffffffffffffffffffffffffffffffffffffff168173ffffffffffffffffffffffffffffffffffffffff16036100a2575f6040517f1e4fbdf70000000000000000000000000000000000000000000000000000000081526004016100999190610265565b60405180910390fd5b6100b1816100f960201b60201c565b508160015f6101000a81548173ffffffffffffffffffffffffffffffffffffffff021916908373ffffffffffffffffffffffffffffffffffffffff160217905550505061027e565b5f805f9054906101000a900473ffffffffffffffffffffffffffffffffffffffff169050815f806101000a81548173ffffffffffffffffffffffffffffffffffffffff021916908373ffffffffffffffffffffffffffffffffffffffff1602179055508173ffffffffffffffffffffffffffffffffffffffff168173ffffffffffffffffffffffffffffffffffffffff167f8be0079c531659141344cd1fd0a4f28419497f9722a3daafe3b4186f6b6457e060405160405180910390a35050565b5f80fd5b5f73ffffffffffffffffffffffffffffffffffffffff82169050919050565b5f6101e7826101be565b9050919050565b6101f7816101dd565b8114610201575f80fd5b50565b5f81519050610212816101ee565b92915050565b5f806040838503121561022e5761022d6101ba565b5b5f61023b85828601610204565b925050602061024c85828601610204565b9150509250929050565b61025f816101dd565b82525050565b5f6020820190506102785f830184610256565b92915050565b6104178061028b5f395ff3fe608060405234801561000f575f80fd5b5060043610610055575f3560e01c8063715018a61461005957806372f702f3146100635780638da5cb5b14610081578063f2fde38b1461009f578063f851a440146100bb575b5f80fd5b6100616100d9565b005b61006b6100ec565b604051610078919061036f565b60405180910390f35b610089610111565b604051610096919061036f565b60405180910390f35b6100b960048036038101906100b491906103b6565b610138565b005b6100c36101bc565b6040516100d0919061036f565b60405180910390f35b6100e16101e1565b6100ea5f610268565b565b60015f9054906101000a900473ffffffffffffffffffffffffffffffffffffffff1681565b5f805f9054906101000a900473ffffffffffffffffffffffffffffffffffffffff16905090565b6101406101e1565b5f73ffffffffffffffffffffffffffffffffffffffff168173ffffffffffffffffffffffffffffffffffffffff16036101b0575f6040517f1e4fbdf70000000000000000000000000000000000000000000000000000000081526004016101a7919061036f565b60405180910390fd5b6101b981610268565b50565b60025f9054906101000a900473ffffffffffffffffffffffffffffffffffffffff1681565b6101e9610329565b73ffffffffffffffffffffffffffffffffffffffff16610207610111565b73ffffffffffffffffffffffffffffffffffffffff16146102665761022a610329565b6040517f118cdaa700000000000000000000000000000000000000000000000000000000815260040161025d919061036f565b60405180910390fd5b565b5f805f9054906101000a900473ffffffffffffffffffffffffffffffffffffffff169050815f806101000a81548173ffffffffffffffffffffffffffffffffffffffff021916908373ffffffffffffffffffffffffffffffffffffffff1602179055508173ffffffffffffffffffffffffffffffffffffffff168173ffffffffffffffffffffffffffffffffffffffff167f8be0079c531659141344cd1fd0a4f28419497f9722a3daafe3b4186f6b6457e060405160405180910390a35050565b5f33905090565b5f73ffffffffffffffffffffffffffffffffffffffff82169050919050565b5f61035982610330565b9050919050565b6103698161034f565b82525050565b5f6020820190506103825f830184610360565b92915050565b5f80fd5b6103958161034f565b811461039f575f80fd5b50565b5f813590506103b08161038c565b92915050565b5f602082840312156103cb576103ca610388565b5b5f6103d8848285016103a2565b9150509291505056fea26469706673582212202667eebc61776e06c411a54e56225cfa35c5c7341041636fb1180ff91c59f67d64736f6c63430008180033","linkReferences":{}},"methodIdentifiers":{"admin()":"f851a440","owner()":"8da5cb5b","renounceOwnership()":"715018a6","stakingToken()":"72f702f3","transferOwnership(address)":"f2fde38b"},"id":2}